:10291D00536D617274C5E4D6C3D7B4CCAC0D0A0047
:10292D00415020C5E4D6C3D7B4CCAC0D0A005769CD
:10293D002D466920D2D1C5E4D6C3B5ABCEB4C1AC5A
:10294D00C9CFC2B7D3C9C6F70D0A0057692D46695D
:10295D0020D2D1C5E4D6C3C7D2C1ACC9CFC2B7D37B
:10296D00C9C6F7A3ACBED6D3F2CDF8BFC9BFD8D672
:10297D00C60D0A00D2D1C1ACC9CFC2B7D3C9C6F7F3
:10298D00C7D2C1ACBDD3B5BDD4C6B6CBA3ACBED634
:10299D00D3F2CDF8BACDCDE2CDF8BEF9BFC9BFD8CF
:1029AD00D6C60D0A0057692D466920C9E8B1B8B4DD
:1029BD00A6D3DAB5CDB9A6BAC4C4A3CABD0D0A0053
:1029CD0057692D466920C9E8B1B8B4A6D3DA2053AA
:1029DD006D61727420BACD20415020B9B2B4E6C5F4
:1029ED00E4D6C3D7B4CCAC0D0A0000000000000043
:103222004201087D0042010600C84201040000C1BB
:1032320009C10CC10DC10EC10FC10AC10B4100FB76
:10324200014100FC014100FD014100FE014100FF7E
:0B3252000142010000014201020001E6
:103F3300759402759304E4F592F591F596F59575EC
:103F4300B202F5B1F5B4F5B3F5CAF5C975CCA0F570
:103F5300CBF5E2F5E17580FF7590FF75A0FF75B0B5
:103F6300FF75C0FF75C8FF75E8FF75F8FFD2A1C2E2
:093F7300EFC2A0D2ED75A0FF22FF
:104043007B007A0079F81211F0FF900108E5F0F097
:10405300A3EFF0900106E0FEA3E0FBAA06E4F9F863
:10406300A3E0FEA3E0FFE4FCFD12123AE47B807AB6
:0F4073003EF9F81212C5900104EEF0A3EFF0220F
:1018A200E4900079F0A3F0787B7C007D017BFF7AE5
:1018B2002979F7FE7F061210BD7F0A7E001247ECDF
:1018C200C2AE75FF02E4F5BBF5E6123F337F2C7E14
:1018D2000112475B1246C3E4FF1245CA7F0112465A
:1018E2007612471D124656122C477BFF7A0879BEA4
:1018F20090008A7402F0FDFF122DAE7B3A7D027FCA
:1019020022122AD17BFF7A0879FE90008A7402F0B3
:101912007D04FF122DAE7B3A7D047F22122AD11262
:10192200489E1244871247CD1245071247071247B5
:101932006ED2AF121CC5300902C209300C02C20CB1
:10194200300D0512005AC20D300E02C20E300F02C7
:10195200C20F200A03021CBA12487EEFB4070050DD
:101962005590196AF828287302197F0219870219FB
:101972008F02199702199F0219A70219AF7BFF7AEA
:1019820029791D802E7BFF7A29792D80267BFF7A8B
:1019920029793B801E7BFF7A29795880167BFF7A52
:1019A200297981800E7BFF7A2979B280067BFF7AC2
:1019B2002979CD12148A1236AE123EE97F0A1245F7
:1019C200EE900079EEF0A3EFF0FDAC06E4120D818B
:1019D200900184E0F8A3E0F9A3E0FAA3E0FB120C83
:1019E200DF7BA67A9B7944783C120AE5E4FBFA791C
:1019F200487843120BD6120DBA900079EEF0A3EF9D
:101A0200F07C007D6412116FEF2430FBE4FD7F2037
:101A1200122AD17B2EE4FD7F28122AD1900079E090
:101A2200FEA3E0FF7C007D0A12116F7C007D0A128A
:101A3200116FED2430FBE4FD7F30122AD190007942
:101A4200E0FEA3E0FF7C007D0A12116FED2430FB63
:101A5200E4FD7F38122AD17B56E4FD7F40122AD161
:101A62007B017A00797B90008A7406F07F0B7E24DA
:101A7200122B8C90007BE0FEA3E0FDEDFFAC06E4B0
:101A8200120D81E4FBFA792F7843120BD67B007A90
:101A9200FF797F7847120CDFE4FBFA793478C212BF
:101AA2000AE5E4FBFA79207841120BD6120DBA90BE
:101AB2000081EEF0A3EFF090007EE0FEA3E0FDEDEA
:101AC200FFAC06E4120D81E4FBFA79C87842120BEE
:101AD200D67B007AFF797F7847120CDFE4FBFA7934
:101AE200207841120BD6120DBA900083EEF0A3EFCC
:101AF200F07C007D0A12116FE4FCFD9000A5121328
:101B02009C7F02122FB4900081E0FEA3E0FFE4FC70
:101B1200FD9000A512139C7F01122FB47D027F035A
:101B22001241009000A51213A8000000647F041265
:101B32002FB49000A51213A8000000017F06122FF7
:101B4200B49000A51213A8000000017F07122FB461
:101B52007D017F08123F7C123EE9E4FCFD9000A566
:101B620012139C7F10122FB4900081E0FEA3E0FFBD
:101B72007C007D6412116F7C007D0A12116FED24CE
:101B820030FB7D027F2A122AD1900081E0FEA3E081
:101B9200FF7C007D0A12116F7C007D0A12116FED2D
:101BA2002430FB7D027F32122AD17B2E7D027F3AC6
:101BB200122AD1900081E0FEA3E0FF7C007D0A1290
:101BC200116FED2430FB7D027F42122AD1900083F7
:101BD200E0FEA3E0FF7C007D6412116F7C007D0AB1
:101BE20012116FED2430FB7D047F2A122AD190005E
:101BF20083E0FEA3E0FF7C007D0A12116F7C007D72
:101C02000A12116FED2430FB7D047F32122AD17B40
:101C12002E7D047F3A122AD1900083E0FEA3E0FFDA
:101C22007C007D0A12116FED2430FB7D047F42128D
:101C32002AD19000EAE075F00A842430FB7D067F09
:101C42000A122AD19000EAE075F00A84E5F0243005
:101C5200FB7D067F12122AD17B3A7D067F1A122A59
:101C6200D19000E9E075F00A842430FB7D067F22E2
:101C7200122AD19000E9E075F00A84E5F02430FBE5
:101C82007D067F2A122AD17B3A7D067F32122AD123
:101C92009000E8E075F00A842430FB7D067F3A125A
:101CA2002AD19000E8E075F00A84E5F02430FB7D4B
:101CB200067F42122AD1C20A200B03021935C20B37
:031CC200021935CF
:03000B000229FDCA
:1029FD00C0E0C0F0C083C082C0D075D000C000C0A0
:102A0D0006C0079000FBE0FF04F0C3EF9404748050
:102A1D0094804005D2097401F09000FCE0FF04F0B1
:102A2D00C3EF9405748094804005D20C7401F0902E
:102A3D0000FDE0FF04F0C3EF940A7480948040051C
:102A4D00D20D7401F09000FEE0FF04F0C3EF94325C
:102A5D00748094804005D20E7401F09000FFE0FF69
:102A6D0004F0C3EF9464748094804005D20F740118
:102A7D00F0900100E475F0011211DAFEC3E5F09457
:102A8D00F4EE64809481400AD20A900100E4F0A330
:102A9D0004F0900102E475F0011211DAFEC3E5F0C5
:102AAD0094E8EE64809483400AD20B900102E4F026
:102ABD00A304F0D007D006D000D0D0D082D083D0E0
:042ACD00F0D0E03233
:0D002E00E4F5C7F5C5F5C675C380F5C4221D
:1046AB0075C78075C5018FC4EEFF8FC375C65A756C
:0846BB00C6A500AFC202002EEB
:1046910075C78075C5028FC4EEFF8FC3AF058FC28A
:0A46A10075C65A75C6A50002002E6A
:1046F10075C78075C5038FC4EEFF8FC375C65A7524
:06470100C6A50002002E17
:0E47EC007D06DDFEEF1F70011E144E70F322DD
:10475B00007D247C0DDCFEDDFCEF1F70011E144E72
:03476B0070EE22CB
:04325D0041019E008D
:10476E00538E7F5389F0758A6C758CEEC28DD2A9EB
:03477E00D28C22B8
:10473300538EBF53890F438910758BFF758DFFC24D
:044743008FC28E2271
:0A48540053D1DF75D3C075D2632283
:0300A30002408296
:10408200C0E0C083C082C0D075D000C006C0073077
:10409200101D90019EE004F0E0FF3395E0FEC3EFB7
:1040A2009404EE648094804006C2EFC210E4F053A0
:0F40B200EFFBD007D006D0D0D082D083D0E03241
:06326100C11041019F00B5
:05002600D210D2EF2210
:1046560043A220E4F5D875D908F5E9F5F975DA111C
:1046660075DB1175DC1175DD11F5EAF5FAD2DE227E
:01005A002283
:03003B0002344A42
:10344A00C0E0C0F0C083C082C0D075D000C000C048
:10345A0001C002C003C004C005C006C007E5D830D9
:10346A00E00D7F811247517FEF12475153D8FEE595
:10347A00D830E10D7F811247517F8F12475153D8BF
:10348A00FDE5D830E20D7F811247517F1F12475167
:10349A0053D8FBE5D830E30D7F811247517F0812DC
:1034AA00475153D8F7D007D006D005D004D003D05F
:1034BA0002D001D000D0D0D082D083D0F0D0E03278
:063267004101A000C111AD
:1046C300759850438E01538EFB75D7C575D6FFD2AF
:0746D300ACD2BC438E1022A3
:1047070075AC1043AC4043D10275D54175D4FD4318
:06471700AF0843D10822A7
:0C483D00C2AC8F993099FDC299D2AC2218
:080003002011FDD2118FAD2286
:05488A00AE0702483DED
:104781008F828E83E493600AF5993099FDC299A3D3
:0347910080F22291
:03002300023E0694
:103E0600C0E0C0F0C083C082C0D075D000C000C082
:103E160001C002C003C004C005C006C00730981226
:103E2600C298AF99EF645670097F64FE12475B75BE
:103E3600C760D007D006D005D004D003D002D00189
:0D3E4600D000D0D0D082D083D0F0D0E032B8
:03008B00023CB77D
:103CB700C0E0C0F0C083C082C0D075D000C000C0D3
:103CC70001C002C003C004C005C006C007E5AC3090
:103CD700E10553ACFDC211E5AC30E00E53ACFE90EC
:103CE70001A0E5ADF0E0FF122F08D007D006D00500
:103CF700D004D003D002D001D000D0D0D082D0835E
:053D0700D0F0D0E03215
:1045CA00EF14600F1460111460132403701275CE77
:1045DA00D0800D75CED1800875CED2800375CED32A
:0445EA0075CDC022A9
:1046760053A2F3EF24FE600B14600C2402700B436C
:0B468600A2042243A2082243A20C223F
:0D48160043CDC08FCFE5CD30E7FBAFCF2203
:07326D00440184449A5195CD
:10471D0043DE20E5DE54F04407F5DE75BC80E4F59C
:06472D00BDF5BEC2AD2285
:1045EE00E4FDFCF5BDF5BEEF4480F5BC43BC4000D8
:1045FE0000E5BC30E5FB53BCDFAFBDAD07EDFCAF56
:04460E00BEAE042216
:03002B00024894F4
:0448940053BCDF3200
:05488F007F0BDFFE229B
:0F47DD00D2B3D2B212488FC2B312488FC2B222E7
:0E47FA00C2B2C2B3D2B212488FD2B302488FFD
:05005E00E0FF1245A4C3
:10006300E4FDFCD2B3D2B212488F30B3130DBD00FE
:10007300010CD3ED94F4EC940140EF1247FAD32230
:08008300A2B3C2B212488F22A1
:1045A400AE07C2B2E4FDEDC3940874809480501544
:1045B400EE25E0FE92B30000D2B212488FC2B212CE
:0645C400488F0D80E1228A
:10452F00E4FED2B3FDEDC39408748094805015C29D
:10453F00B212488FD2B2EE25E0FE30B3010E124810
:07454F008F0D80E1AF062291
:10479400C2B2A20092B312488FD2B212488FC2B2F0
:0347A40002488F39
:10455600AE07AA051247DDAF061245A41200635046
:104566000122AF021245A4120063AF031245A41242
:0745760000631247FAC322A3
:10400200900159EDF0AE071247DDAF061245A4123A
:10401200006350012290015912005E50012290016A
:104022005DE060181210E312005F50012290015D02
:10403200E014F0740129F9E43AFA80E21247FAC373
:01404200225B
:1041AE00900196EFF0A3EDF01247DD90019612000C
:1041BE005EA312005E1247DD900196E00412005FCE
:1041CE0012452FEF121129D2001247941247FAC34B
:0141DE0022BE
:103A490090008CEFF0A3EDF01247DD90008C12008E
:103A59005E50012290008D12005E5001221247DD56
:103A690090008CE00412005F500122900091E06008
:103A79002712452FEF121129900091E0640170047B
:103A8900D2008002C200124794900091E014F074B1
:0D3A99000129F9E43AFA80D31247FAC3225A
:0A485E00D2A2C2A1124816D2A12274
:0A474700EBF0A3EAF0A3E9F07FB065
:0A475100C2A2C2A1124816D2A12292
:1041DF007F2E1247513012287F26124751E4FF12CB
:1041EF004751E4FF124751E4FF1247517F01124735
:1041FF0051E4FF1247517F7F1247517F2F124751D2
:01420F00228C
:102C4700D2A1D2C27F057E0012475BC2C27F0A7E35
:102C57000012475BD2C27F057E0012475BC2A17F8D
:102C6700AE1247517F021247517F101247517FD54D
:102C77001247517F801247517FA81247517F3F1259
:102C870047517FD3124751E4FF1247517F40124704
:102C9700517F8D1247517F141247517F20124751A0
:102CA7007F021247517FA11247517FC81247517FB8
:102CB700DA1247517F121247517F811247517FCF56
:102CC7001247517FD91247517FF11247517FDB12CB
:102CD70047517F401247517FA41247517FA61247A1
:102CE700517F2E1247517FAF1247517F647E0012EA
:082CF700475B123E53D2A122FB
:103DB4009001701247477F011247517F10124751FB
:103DC400C2A1D2A2E4900173F0A3F0900173E0FECB
:103DD400A3E0FFC3EE94045026900170E0FBA3E03F
:103DE400FAA3E0F98F828E831210FCFF124816901A
:103DF4000174E004F070D4900173E004F080CCD23C
:023E0400A122F9
:103C0B009001751247477F011247517F10124751A0
:103C1B00C2A8C2A1D2A2E4900178F0A3F0900178DF
:103C2B00E0FEA3E0FFC3EE94015026900175E0FB8C
:103C3B00A3E0FAA3E0F98F828E831210FCFF1248E7
:103C4B0016900179E004F070D4900178E004F080D4
:063C5B00CCD2A1D2A82288
:1038C50090017AEBF0A3EAF0A3E9F07FB212475139
:1038D5007F011247517F10124751C2A1D2A2C2A83F
:1038E50090017D7401F0A3E4F090017DE0FEA3E07A
:1038F500FFC3EE9404502690017AE0FBA3E0FAA3FF
:10390500E0F98F828E831210FCFF12481690017E1B
:10391500E004F070D490017DE004F080CCD2A1D217
:02392500A822D6
:103E5300E4900085F0900085E0FFC394087480949B
:103E6300805038EF24B0FF1247517F021247517F31
:103E730010124751E4900086F0900086E0C39480CE
:103E830074809480500DE4FF12485E900086E00435
:0C3E9300F080E6900085E004F080BA2288
:1000A6000000000000000000002F00000000070014
:1000B600070000147F147F1400242A7F2A1200628E
:1000C600640813230036495522500000050300003A
:1000D60000001C224100000041221C000014083EC2
:1000E60008140008083E0808000000A06000000888
:1000F60008080808000060600000002010080402DC
:10010600003E5149453E0000427F40000042615199
:100116004946002141454B31001814127F10002733
:1001260045454539003C4A494930000171090503F6
:1001360000364949493600064949291E0000363627
:10014600000000005636000000081422410000148A
:100156001414141400004122140800020151090667
:1001660000324959513E007C1211127C007F4949E8
:100176004936003E41414122007F4141221C007F19
:1001860049494941007F09090901003E4149497A27
:10019600007F0808087F0000417F410000204041A1
:1001A6003F01007F08142241007F40404040007F0D
:1001B600020C027F007F0408107F003E4141413E51
:1001C600007F09090906003E4151215E007F091999
:1001D60029460046494949310001017F0101003F96
:1001E6004040403F001F2040201F003F4038403F16
:1001F600006314081463000708700807006151497A
:10020600454300007F41410000552A552A5500000C
:1002160041417F000004020102040040404040408A
:10022600000001020400002054545478007F484422
:10023600443800384444442000384444487F003859
:100246005454541800087E0901020018A4A4A47C82
:10025600007F080404780000447D4000004080844C
:100266007D00007F102844000000417F4000007C94
:1002760004180478007C08040478003844444438A0
:1002860000FC242424180018242418FC007C0804EC
:10029600040800485454542000043F444020003CC5
:1002A6004040207C001C2040201C003C4030403C4C
:1002B600004428102844001CA0A0A07C00446454DC
:1002C6004C44141414141414000000000000000020
:1002D6000000000000000000000000F8F800000028
:1002E600000000333300000000100C06100C06005E
:1002F600000000000000000040C07840C0784000C8
:10030600043F04043F040400007088FC0830000029
:10031600001820FF211E0000F008F000E018000081
:1003260000211C031E211E0000F00888700000003A
:100336001E2123241927211010160E00000000008C
:100346000000000000000000000000E018040200A9
:10035600000000071820400000020418E00000001A
:100366000040201807000000404080F08040400018
:100376000202010F01020200000000F0000000006E
:100386000101011F01010100000000000000000042
:1003960080B07000000000000000000000000000B7
:1003A6000001010101010101000000000000000040
:1003B60000303000000000000000000080601804DB
:1003C600006018060100000000E010080810E000B8
:1003D600000F102020100F00001010F80000000081
:1003E6000020203F202000000070080808887000C8
:1003F6000030282422213000003008888848300048
:100406000018202020110E000000C02010F8000067
:1004160000070424243F240000F808888808080000
:100426000019212020110E0000E010888818000015
:10043600000F112020110E0000380808C8380800E7
:100446000000003F00000000007088080888700067
:10045600001C222121221C0000E010080810E000E8
:100466000000312222110F00000000C0C000000071
:100476000000003030000000000000800000000096
:10048600000080600000000000008040201008008E
:100496000001020408102000404040404040400057
:1004A6000404040404040400000810204080000032
:1004B6000020100804020100007048080808F00037
:1004C6000000003036010000C030C828E810E00007
:1004D6000718272423140B000000C038E000000092
:1004E600203C23020227382008F8888888700000FC
:1004F600203F202020110E00C030080808083800D0
:10050600071820202010080008F808080810E00046
:10051600203F202020100F0008F88888E8081000E7
:10052600203F20202320180008F88888E8081000BB
:10053600203F200003000000C030080808380000F3
:1005460007182020221E020008F808000008F808F4
:10055600203F210101213F20000808F8080800007B
:100566000020203F2020000000000808F8080800AE
:10057600C08080807F00000008F888C02818080026
:10058600203F20012638200008F80800000000005F
:10059600203F20202020300008F8F800F8F8080056
:1005A600203F003F003F200008F830C00008F80850
:1005B600203F200007183F00E01008080810E00060
:1005C6000F10202020100F0008F808080808F00077
:1005D600203F210101010000E01008080810E0009A
:1005E6000F18242438504F0008F88888888870002F
:1005F600203F2000030C30200070880808083800CF
:100606000038202121221C00180808F808081800C4
:100616000000203F2000000008F808000008F80845
:10062600001F202020201F000878880000C83808F6
:10063600000007380E010000F80800F80008F8006E
:10064600033C0700073C0300081868808068180808
:1006560020302C03032C30200838C800C838080086
:100666000000203F2000000010080808C8380800D5
:100676002038262120201800000000FE0202020079
:100686000000007F40404000000C30C00000000029
:10069600000000010638C00000020202FE00000051
:1006A600004040407F0000000000040202020400F7
:1006B6000000000000000000000000000000000034
:1006C600808080808080808000020204000000001C
:1006D6000000000000000000000080808080000014
:1006E6000019242222223F2008F800808000000002
:1006F600003F112020110E000000008080800000C5
:10070600000E112020201100000000808088F800D3
:10071600000E112020103F20000080808080000005
:10072600001F222222221300008080F08888881869
:100736000020203F20200000000080808080800074
:10074600006B94949493600008F800808080000009
:10075600203F210000203F200080989800000000E4
:100766000020203F20200000000000809898000014
:1007760000C08080807F000008F800008080800034
:10078600203F24022D302000000808F80000000059
:100796000020203F20200000808080808080800014
:1007A600203F20003F20003F8080008080800000A6
:1007B600203F210000203F20000080808080000034
:1007C600001F202020201F00808000808000000065
:1007D60080FFA12020110E00000000808080800094
:1007E600000E112020A0FF80808080008080800085
:1007F60020203F21200001000000808080808000B2
:100806000033242424241900008080E08080000026
:100816000000001F20200000808000000080800073
:10082600001F202020103F208080800000808080D4
:1008360000010E3008060100808000800080808064
:100846000F300C030C300F00008080008080800089
:100856000020312E0E3120008080800000808080B4
:1008660080818E7018060100008080808080800064
:100876000021302C2221300000000000807C020282
:1008860000000000003F404000000000FF000000A4
:1008960000000000FF0000000002027C8000000053
:1008A6000040403F0000000000060101020204046F
:1008B60000000000000000001060028C0000FE92A4
:1008C60092929292FE00000004047E01407E424213
:1008D6007E427E42427E40000000FC242424FC2509
:1008E6002624FC242424040040308F80844C552583
:1008F6002525554C808080001060028C00FE929267
:1009060092929292FE00000004047E014448507FB9
:1009160040407F50484440000000FC242424FC252D
:100926002624FC242424040040308F80844C552542
:100936002525554C808080004030EF246448487F50
:100946004848487F4848400001017F211100FF497F
:1009560049494949FF0000004042CC0000809E9270
:10096600929292929E80000000007F2094844424FC
:10097600140F142444848400008060F80704E4A45F
:10098600A4BFA4A4E4040000010000FF40407F4A85
:100996004A4A4A4A7F404000060909E6F80C040222
:1009A60002020202041E0000000000071F30204061
:1009B6004040404020100000000000000000FF40C2
:1009C60040404040400000004040404040407F40A2
:1009D6004040404040404000020202020202FE0245
:1009E6000242820202020200000000000000FF0034
:1009F60000000001060000004030EF242480E49C43
:100A0600105454FF547C100001017F2151261827F1
:100A16004445455F454544000484E45C44C42010D5
:100A2600E82724E4342CE00002017F10103F8060A8
:100A36001F09093F49897F00100C4444444445C6B8
:100A46004444444444140C008040201E2040407F0F
:100A560044444444444040001060028C00FE02F2CC
:100A660002FE00F800FF000004047E018047300FFC
:100A760010270047807F0000404042CC00909090B5
:100A86009090FF10111610000000003F1028603FE4
:100A96001010010E3040F0002424A4FE2322003E54
:100AA60022222222223E0000080601FF01064049BA
:100AB60049497F49494941000000FC0404041415D2
:100AC600569454341404040040300F0001010141CF
:080AD600817F0101010503000D
:0544DD00E0FFA3E0FD7B
:1044E20090008DEFF0ED24B0FF12475190008DE067
:1044F20054F0C4540F4410FF12475190008DE05401
:054502000FFF0247510C
:10392700AC07E4900190F0A3F0A3F0EB24E0900142
:1039370090F0ECD3947E748094804003E4FC0DAF48
:10394700041244E2E4900191F0900191E0FFC394E6
:103957000674809480502A900190E075F006A424A4
:10396700A6F582E5F03400F583E5822FF582E4358C
:1039770083F583E493FF12485E900191E004F080A1
:02398700C82254
:10305B0090011CEFF0A3EDF0A3EBF0A3EAF0A3E9D2
:10306B00F0E4A3F0A3F0A3F090011EE0FBA3E0FAC1
:10307B00A3E0F9900123E0F5827583001210FC6048
:10308B006C24E0900121F090011CE0D3947E7480BD
:10309B0094804006E4F0A3E004F090011C1244DDA0
:1030AB00E4900122F0900122E0FFC3940674809417
:1030BB0080502A900121E075F006A424A6F582E544
:1030CB00F03400F583E5822FF582E43583F583E454
:1030DB0093FF12485E900122E004F080C890011C1F
:0E30EB00E02406F0900123E004F0023073228E
:102AD100900086EDF0900085EFF0FDE4900087F026
:102AE100A3F0A3F0EB24E0900087F0EDD3947E7483
:102AF1008094804009E4900085F0A3E004F0900008
:102B0100851244DDE4900088F0900088E0FFC394D2
:102B11000874809480502A900087E075F010A424F6
:102B2100CEF582E5F03402F583E5822FF582E435B6
:102B310083F583E493FF12485E900088E004F080FF
:102B4100C8900085E0FFA3E004FD1244E2E4900098
:102B510088F0900088E0FFC3940874809480502A24
:102B6100900087E075F010A424D6F582E5F03402D8
:102B7100F583E5822FF582E43583F583E493FF1233
:0B2B8100485E900088E004F080C8224D
:10283300900124EFF0A3EDF0A3EBF0A3EAF0A3E9FA
:10284300F0E4A3F0A3F0A3F0900126E0FBA3E0FAE9
:10285300A3E0F990012BE0F5827583001210FC7060
:102863000302291C24E0900129F0900124E0D39471
:1028730078748094804006E4F0A3E004F09001248F
:102883001244DDE490012AF090012AE0FFC394088A
:1028930074809480502A900129E075F010A424CE0E
:1028A300F582E5F03402F583E5822FF582E4358382
:1028B300F583E493FF12485E90012AE004F080C898
:1028C300900124E0FFA3E004FD1244E2E490012A16
:1028D300F090012AE0FFC3940874809480502A90FA
:1028E3000129E075F010A424D6F582E5F03402F551
:1028F30083E5822FF582E43583F583E493FF124861
:102903005E90012AE004F080C8900124E02408F0DE
:0A29130090012BE004F002284B2293
:102DAE00900085EFF0A3EDF0A3EBF0A3EAF0A3E91A
:102DBE00F0E490008CF090008BF090008AE0FFA37E
:102DCE00E0C39F4003022E5A9000851244DDE4902A
:102DDE00008CF090008CE0C3941074809480501F8F
:102DEE00900087E0FBA3E475F0011211DAA9F0FA66
:102DFE001210E3FF12485E90008CE004F080D49035
:102E0E000085E0FFA3E004FD1244E2E490008CF0A4
:102E1E0090008CE0C3941074809480501F900087B3
:102E2E00E0FBA3E475F0011211DAA9F0FA1210E337
:102E3E00FF12485E90008CE004F080D4900085E094
:0D2E4E002410F090008BE004F0022DC8224B
:103FC000637263206572726F7220286372633A3085
:103FD000782558202062757420646174613A3078C5
:103FE0002558290D0A007B2273736964223A220046
:103FF000222C2270617373776F7264223A2200223E
:024000007D0041
:0532740042019800007A
:10363D00EFC39430400CEFD39439500674D02FFF64
:10364D008022EFC39441400CEFD394465006EF24F3
:10365D00C9FF8010EFC39461400AEFD39466500404
:10366D00EF24A9FFEF540FC454F0FFEDC394304085
:10367D000CEDD39439500674D02DFD801EEDC394FE
:10368D00414008EDD394465002800CEDC394614047
:10369D000AEDD394665004ED24A9FDED540F4FFFB0
:0136AD0022FA
:0B34CA0090012FE0FBA3E0FAA3E0F963
:1034D50090009DEBF0A3EAF0A3E9F0A31213A80076
:1034E50000000090009DE0FBA3E0FAA3E04A4B70CA
:1034F50005FFFEFDFC229000A01213A800000000AD
:1035050090009DE0FBA3E475F0011211DAA9F0FA31
:103515001210E360219000A0E0FCA3E0FDA3E0FE13
:10352500A3E02401FFE43EFEE43DFDE43CFC900005
:10353500A012139C80CA9000A0E0FCA3E0FDA3E0CC
:05354500FEA3E0FF22DF
:103B5C0090010AEBF0A3EAF0A3E9F0900110EBF06E
:103B6C00A3EAF0A3E9F090010AE0FBA3E0FAA3E0DA
:103B7C004A4B7004FBFAF92290010E74FFF5F01217
:103B8C0011DA45F06016900110E0FBA3E475F0012A
:103B9C001211DAA9F0FAED12112980DC90010AE079
:083BAC00FBA3E0FAA3E0F922FB
:1020AF009000A4EBF0A3EAF0A3E9F09000ACEBF002
:1020BF00A3EAF0A3E9F09000A7E0F9A3E0FAA3E008
:1020CF009000AFC9F0A3EAF0A3E9F09000A4E0FB01
:1020DF00A3E0FAA3E04A4B600CA3E0FBA3E0FAA352
:1020EF00E04A4B70077B007A007900229000AFE046
:1020FF00FBA3E0FAA3E0F9C003C002C0019000AC5B
:10210F00A3E0FAA3E0F9D3D082D083D0E0E995829F
:10211F00EA958340339000AFA3E0FAA3E0F9900073
:10212F00AAE0FEA3E0FFE92FF9EA3EFAC003C002DE
:10213F00C001A3A3E0FAA3E0F9D3D082D083D0E00B
:10214F00E99582EA95834056E49000B2F0A3F090AF
:10215F0000AAE0FEA3E0FF9000B2E0FCA3E0FDC305
:10216F009FEC9E400302220A9000AFE0FBA3E0FA2F
:10217F00A3E0F98D828C831210FCFF9000ACE0FB82
:10218F00A3E0FAA3E0F98D828C83EF12113B90004C
:10219F00B3E004F070069000B2E004F080B190005C
:1021AF00AAE0FFA3E09000B2CFF0A3EFF09000B24F
:1021BF00E0FEA3E0FFD39400EE9400403E9000AF0A
:1021CF00E0FBA3E0FAA3E0F9EF24FFFFEE34FFFEFC
:1021DF008F82F5831210FCFD9000ACE0FBA3E0FAB8
:1021EF00A3E0F98F828E83ED12113B9000B3E024B0
:1021FF00FFF09000B2E034FFF080B29000A4E0FB5B
:07220F00A3E0FAA3E0F922AD
:10333A00900113EBF0A3EAF0A3E9F0900119EBF086
:10334A00A3EAF0A3E9F0900113E0FBA3E0FAA3E0FB
:10335A004A4B600CA3E0FBA3E0FAA3E04A4B7007D8
:10336A007B007A00790022900116E0FBA3E0FAA321
:10337A00E0F91210E36028900116A3E475F0011237
:10338A0011DAA9F0FA1210E3FF900113E0FBA3E4AB
:10339A0075F0011211DAA9F0FAEF12112980C8901A
:1033AA000113E0FBA3E0FAA3E0F9E412112990016A
:0A33BA0019E0FBA3E0FAA3E0F922FA
:1035CA0090015EEBF0A3EAF0A3E9F090015EE0FB64
:1035DA00A3E0FAA3E0F91210E3FF6029900161E089
:1035EA00FBA3E0FAA3E0F91210E36019B5071690FD
:1035FA00015FE475F0011211C4900162E475F001F3
:10360A001211C480C6900161E0FBA3E0FAA3E0F9BD
:10361A001210E3FF3395E0FE90015EE0FBA3E0FAAF
:10362A00A3E0F91210E3FD3395E0FCC3ED9FFFEC34
:03363A009EFE22CF
:1039890090018812139C900188E0FCA3E0FDA3E05C
:10399900FEA3E0FF7818121376EF1211299001881F
:1039A900E0FCA3E0FDA3E0FEA3E0FF78101213768C
:1039B900900001EF12113B900188E0FCA3E0FDA308
:1039C900E0FEA3E0FF7808121376900002EF1211CF
:1039D9003B900188A3A3A3E0FF900003EF02113BF2
:1024CF009000A6EBF0A3EAF0A3E9F0A31213A80083
:1024DF000000001210E3FFE4FCFDFE9000A91213B0
:1024EF009C9000A9E0FCA3E0FDA3E0FEA3E0FF7831
:1024FF00081213899000A912139C9000A9E0F8A369
:10250F00E0F9A3E0FAA3E0FBC000C001C002C003E2
:10251F009000A6E0FBA3E0FAA3E0F99000011210EF
:10252F00FCFFD003D002D001D000EB4FFFEAFEE951
:10253F00FDE8FC9000A912139C9000A9E0FCA3E019
:10254F00FDA3E0FEA3E0FF78081213899000A91203
:10255F00139C9000A9E0F8A3E0F9A3E0FAA3E0FB35
:10256F00C000C001C002C0039000A6E0FBA3E0FAC8
:10257F00A3E0F99000021210FCFFD003D002D001AB
:10258F00D000EB4FFFEAFEE9FDE8FC9000A9121323
:10259F009C9000A9E0FCA3E0FDA3E0FEA3E0FF7880
:1025AF00081213899000A912139C9000A9E0F8A3B8
:1025BF00E0F9A3E0FAA3E0FBC000C001C002C00332
:1025CF009000A6E0FBA3E0FAA3E0F990000312103D
:1025DF00FCFFD003D002D001D000EB4FFFEAFEE9A1
:1025EF00FDE8FC9000A912139C9000A9E0FCA3E069
:0825FF00FDA3E0FEA3E0FF22B2
:103AA600900165EBF0A3EAF0A3E9F0AD07E4FFFEB1
:103AB600900002E0640170020F2212445BE4FD12E2
:103AC600445B900168E0FD12445B900169E0FD12E1
:103AD600445B900165E0FBA3E0FAA3E0F9A3E0FDF7
:103AE600A3E09000A2CDF0A3EDF0123796AB07AAA3
:0B3AF600067D037F071237F97F0122D5
:103F7C009000A0EDF0AC07E4FFFE900002E06401BD
:103F8C0070020F22AD0412445B7D0112445BE4FD10
:103F9C0012445B7D0112445B9000A0E07003FD8035
:103FAC00027D0112445BAB07AA067D037F07123723
:043FBC00F97F012266
:102FB400AD07E4FFFE900002E0640170020F2212EC
:102FC400445B7D0212445BE4FD12445B7D041244C5
:102FD4005BC006C0079000A5E0FCA3E0FDA3E0FEF3
:102FE400A3E0FF7818121376AD07D007D006124479
:102FF4005BC006C0079000A5E0FCA3E0FDA3E0FED3
:10300400A3E0FF7810121376AD07D007D006124460
:103014005BC006C0079000A5E0FCA3E0FDA3E0FEB2
:10302400A3E0FF7808121376AD07D007D006124448
:103034005BC006C0079000A5E0FCA3A3A3E0FFE4E7
:10304400AD07D007D00612445BAB07AA067D037F09
:07305400071237F97F01228A
:103B010090016BEBF0A3EAF0A3E9F0AD07E4FFFE4F
:103B1100900002E0640170020F2212445B7D0312E7
:103B2100445B90016EE0FD12445B90016FE0FD1279
:103B3100445B90016BE0FBA3E0FAA3E0F9A3E0FD95
:103B4100A3E09000A2CDF0A3EDF0123796AB07AA47
:0B3B5100067D037F071237F97F012279
:104100009000A0EDF0AC07E4FFFE900002E0640137
:1041100070020F22AD0412445B7D0412445BE4FD87
:1041200012445B7D0112445B9000A0E0FD12445BF1
:0E413000AB07AA067D037F071237F97F012235
:10221600AD07E4900141F0A3F0900002E064017084
:10222600037F0122900141E0FEA3E0FF12445B9090
:102236000141EEF0A3EFF07D0512445B900141EE03
:10224600F0A3EFF0E4FD12445B900141EEF0A3EF42
:10225600F090013DE0FCA3E0FDA3E0FEA374FFFFC8
:10226600E47BFFFAF9F8C31213657020900141E090
:10227600FEA3E0FF7D0112445B900141EEF0A3EF67
:10228600F090013DA3A3A3E0FD02235890013DE099
:10229600FCA3E0FDA3A374FFFFFEE47BFF7AFFF936
:1022A600F8C31213659001417009E0FEA3E0FF7DBB
:1022B600028057E0FEA3E0FF7D0412445B900141DB
:1022C600EEF0A3EFF0C006C00790013DE0FCA3E0EE
:1022D600FDA3E0FEA3E0FF7818121376AD07D00742
:1022E600D00612445B900141EEF0A3EFF0C006C0A9
:1022F6000790013DE0FCA3E0FDA3E0FEA3E0FF782C
:1023060010121376AD07D007D00612445B90014138
:10231600EEF0A3EFF0C006C00790013DE0FCA3E09D
:10232600FDA3E0FEA3E0FF7808121376AD07D00701
:10233600D00612445B900141EEF0A3EFF0C006C058
:102346000790013DE0FCA3A3A3E0FFE4AD07D0079F
:10235600D00612445B900141EEF0A3EFF0900141EC
:0F236600E0FAA3E0FB7D037F071237F97F012226
:0D4823009000A0ECF0A3EDF01210E3FF22D6
:0D4830009000A0ECF0A3EDF01210E3FF22C9
:0B4849009000A4ECF0A3EDF00224CFDF
:102F0800900078EFF0900071A3E0FAA3E0AE02FF22
:102F1800900074A3E0FAA3E0C39FFFEA9EFEEF646B
:102F2800014E7003022FB3900074E0FBA3A3E0F9F5
:102F3800C003C002C001900071A3E0FAA3E0F9D376
:102F4800D082D083D0E0E99582EA9583402390002F
:102F580074A3E0FAA3E0AE02FF900071A3E0FAA325
:102F6800E09FFFEA9EFEC3EF9417EE6480948050C2
:102F78003A900071A3E0FAA3E0C390003A9582EA80
:102F88009583400E9000717401F0A37400F0A3744F
:102F980023F0900078E0FF900071E0FBA3E475F067
:0C2FA800011211DAA9F0FAEF121129222F
:1040C10090017FEBF0A3EAF0A3E9F0A3ECF0A3EDFC
:1040D100F0E4FDFCD3900183E09D900182E09C40DF
:1040E1001D90017FE0FBA3E0FAA3E0F98D828C83B0
:0F40F1001210FCFF122F080DBD00010C80D6220B
:101CC500E4900085F0A3F0A3F0A3F0C3900199E0A0
:101CD500941F900198E09400502A124179D3EF9413
:101CE5000074809480401D123862900198E475F06C
:101CF500011211DAFC740325F0F58274003CF583BA
:101D0500EFF080C7C3900199E09407900198E094A3
:101D1500005003021F12900085E0FEA3E0FFC39070
:101D25000199E09FFD900198E09EFCC3ED9407ECBE
:101D350094005003021EC574032FF58274003EF50E
:101D450083E064556010900086E004F070C8900050
:101D550085E004F080C0900085E0FEA3E0FF240448
:101D6500F58274003EF583E064AA6010900086E079
:101D750004F070A2900085E004F0809A74052FF5B8
:101D85008274003EF583E06009900086E02402023B
:101D95001E98900085E0FCA3E0FD2407F582740001
:101DA5003CF583E0900087F0A3E4F074082DF582FC
:101DB50074003CF583E02407FFE433FE900088E0DF
:101DC5002FF0900087E03EF0E0FEA3E0FFD39426DD
:101DD500EE94004009900086E02403021E989000CE
:101DE50085E0FCA3E0FDC3900199E09DFD9001987D
:101DF500E09CFCD3EF9DEE9C4003021EC590008540
:101E0500E0FEA3E02403F974003EFA7B019000880C
:101E1500E024FFFD900087E034FFFC123E9F900018
:101E250087E0FCA3E0FD900085E0FAA3E0FB2DFD33
:101E3500EA3CFC74022DF58274003CF583E06F608A
:101E45005D74032BF974003AFA7B01900088E02455
:101E5500FFFD900087E034FFFC123E9F90008FEF5E
:101E6500F07BFF7A3F79C0900087E0FEA3E0FF900A
:101E75000086E02FFF900085E03EFE74022FF5827C
:101E850074003EF583E0900090F012148A9000866D
:101E9500E02403F0900085E03400F0021D1B900063
:101EA50085E0FEA3E0FF122375900087E0FEA3E026
:101EB500FF900086E02FF0900085E03EF0021D1BAC
:101EC500900085E0FEA3E0FFC3900199E09FFD909F
:101ED5000198E09EFCF0A3EDF0D39400EC94004053
:101EE5002C74032FF974003EFA9000A77401F0A337
:101EF500EAF0A3E9F0900198E0FFA3E09000AACFF3
:0E1F0500F0A3EFF07B017A0079031220AF22E7
:104507009000717401F0A37400F0A37423F090007D
:10451700747401F0A37400F0A37423F0E490000214
:08452700F090007774FFF02210
:06487200900022E0FF228D
:0E480800E4900022F0FBFA7D037F040237F9F2
:06487800900001E0FF22A8
:1046DA00AD07E4FF900001F0FE12445BEFFB7A00A5
:0746EA007D037F050237F993
:06487E00900077E0FF222C
:1027200090012CEBF0A3EAF0A3E9F0E4900132F081
:10273000A3F01234D5E47B20FAF9F8C312136550E4
:10274000030228321234CAE47B40FAF9F8C31213A8
:102750006550030228327BFF7A3F79E61234D59028
:1027600000A2EEF0A3EFF0900132E0FEA3E0FF7BC9
:10277000FF7A3F79E6123796900132EEF0A3EFF040
:1027800090012C1234CD9000A2EEF0A3EFF0900156
:1027900032E0FEA3E0FF90012CE0FBA3E0FAA3E00F
:1027A000F9123796900132EEF0A3EFF07BFF7A3FFB
:1027B00079F01234D59000A2EEF0A3EFF090013240
:1027C000E0FEA3E0FF7BFF7A3F79F012379690019D
:1027D00032EEF0A3EFF01234CA9000A2EEF0A3EFB5
:1027E000F0900132E0FEA3E0FF90012FE0FBA3E0B8
:1027F000FAA3E0F9123796900132EEF0A3EFF07BE6
:10280000FF7A3F79FF1234D59000A2EEF0A3EFF0EB
:10281000900132E0FEA3E0FF7BFF7A3F79FF1237A1
:1028200096900132EEF0FAA3EFF0FB7D037F2C12BD
:0328300037F92253
:10327900602C00BC010202020304040205010602DB
:103289000702080109040A020B020C020D020E04CE
:103299000F04100211021202130214021501160280
:0348980002000318
:0148A10022F4
:10423F001248499000A012139C9000A0E0FCA3E04C
:10424F00FDA3E0FEA3E0FF9000A512139C7F0612D2
:0D425F002FB4EF640170037F01227F002265
:10426C001248499000A012139C9000A0E0FCA3E01F
:10427C00FDA3E0FEA3E0FF9000A512139C7F0712A4
:0D428C002FB4EF640170037F01227F002238
:10000E00124830AD077F09124100EF640170037F83
:05001E0001227F002219
:104299001248499000A012139C9000A0E0FCA3E0F2
:1042A900FDA3E0FEA3E0FF9000A512139C7F0A1274
:0D42B9002FB4EF640170037F01227F00220B
:1042C6001248499000A012139C9000A0E0FCA3E0C5
:1042D600FDA3E0FEA3E0FF9000A512139C7F0B1246
:0D42E6002FB4EF640170037F01227F0022DE
:1042F3001248499000A012139C9000A0E0FCA3E098
:10430300FDA3E0FEA3E0FF9000A512139C7F0C1217
:0D4313002FB4EF640170037F01227F0022B0
:104320001248499000A012139C9000A0E0FCA3E06A
:10433000FDA3E0FEA3E0FF9000A512139C7F0D12E9
:0D4340002FB4EF640170037F01227F002283
:10434D001248499000A012139C9000A0E0FCA3E03D
:10435D00FDA3E0FEA3E0FF9000A512139C7F1012B9
:0D436D002FB4EF640170037F01227F002256
:10437A001248499000A012139C9000A0E0FCA3E010
:10438A00FDA3E0FEA3E0FF9000A512139C7F11128B
:0D439A002FB4EF640170037F01227F002229
:1043A7001248499000A012139C9000A0E0FCA3E0E3
:1043B700FDA3E0FEA3E0FF9000A512139C7F12125D
:0D43C7002FB4EF640170037F01227F0022FC
:1043D4001248499000A012139C9000A0E0FCA3E0B6
:1043E400FDA3E0FEA3E0FF9000A512139C7F13122F
:0D43F4002FB4EF640170037F01227F0022CF
:104401001248499000A012139C9000A0E0FCA3E088
:10441100FDA3E0FEA3E0FF9000A512139C7F141200
:0D4421002FB4EF640170037F01227F0022A1
:10008E00124823AD077F15123F7CEF640170037F8A
:05009E0001227F002299
:10442E001248499000A012139C9000A0E0FCA3E05B
:10443E00FDA3E0FEA3E0FF9000A512139C7F1612D1
:0D444E002FB4EF640170037F01227F002274
:101F130090009AEBF0A3EAF0A3E9F0EF24FAB411EE
:101F23000040030220A9901F3775F003A4C5832541
:101F3300F0C58373021F6A021F810220A9021F9842
:101F4300021FAF021FC6021FDD021FF40220A902F7
:101F530020A902200B02202202203802204E022058
:101F63006402207A02209090009AE0FBA3E0FAA397
:101F7300E0F9A3E0FCA3E0FD12423F0220A490009D
:101F83009AE0FBA3E0FAA3E0F9A3E0FCA3E0FD12CF
:101F9300426C0220A490009AE0FBA3E0FAA3E0F9CC
:101FA300A3E0FCA3E0FD12000E0220A490009AE03F
:101FB300FBA3E0FAA3E0F9A3E0FCA3E0FD1242993E
:101FC3000220A490009AE0FBA3E0FAA3E0F9A3E0C7
:101FD300FCA3E0FD1242C60220A490009AE0FBA3FA
:101FE300E0FAA3E0F9A3E0FCA3E0FD1242F3022030
:101FF300A490009AE0FBA3E0FAA3E0F9A3E0FCA31A
:10200300E0FD1243200220A490009AE0FBA3E0FA33
:10201300A3E0F9A3E0FCA3E0FD12434D0220A4904A
:10202300009AE0FBA3E0FAA3E0F9A3E0FCA3E0FD40
:1020330012437A806C90009AE0FBA3E0FAA3E0F9E4
:10204300A3E0FCA3E0FD1243A7805690009AE0FBB7
:10205300A3E0FAA3E0F9A3E0FCA3E0FD1243D480DC
:102063004090009AE0FBA3E0FAA3E0F9A3E0FCA30D
:10207300E0FD124401802A90009AE0FBA3E0FAA35A
:10208300E0F9A3E0FCA3E0FD12008E801490009A17
:10209300E0FBA3E0FAA3E0F9A3E0FCA3E0FD124414
:0C20A3002E90009FEFF090009FE0FF22C5
:03489B007F162263
:06488400900092EFF0220B
:10413E007B2270223A220075397A656C7A62767922
:10414E00706369656A686100222C2276223A220029
:10415E00312E302E3000222C226D223A0032007D7C
:0B416E00000000000000000000000046
:0432A90041000000E0
:10445B009000A9EEF0A3EFF02440F974003EFA7B34
:10446B0001ED1211299000AAE004F070069000A94A
:0C447B00E004F09000A9E0FEA3E0FF22A6
:09378D00900092E0FF7E007BFF3A
:1037960090009FEBF0A3EAF0A3E9F090009DEEF015
:1037A600A3EFF02440F974003EFA7B01C002C00189
:1037B600A3E0F9A3E0FAA3E09000A7C9F0A3EAF01A
:1037C600A3E9F09000A2E0FFA3E09000AACFF0A347
:1037D600EFF0D001D0021220AF9000A2E0FEA3E0ED
:1037E600FF90009EE02FF090009DE03EF0E0FEA3EB
:0337F600E0FF22CF
:103E9F009000ABEBF0A3EAF0A3E9F0A3ECF0A3EDF5
:103EAF00F0E4A3F0FFFED39000AFE09F9000AEE0F0
:103EBF009E40219000ABE0FBA3E475F0011211DAF4
:103ECF00A9F0FA1210E3FD9000B0E02DF00FBF0043
:0A3EDF00010E80D29000B0E0FF2237
:103D0C009000ABEBF0A3EAF0A3E9F0A3ECF0A3ED89
:103D1C00F09000ABE0FBA3E0FAA3E04A4B6034A3C5
:103D2C00E07002A3E0602C9000AE74FFF5F012116D
:103D3C00DA45F0601E9000ABE0FBA3E0FAA3E0F9DB
:103D4C001210E3FF1248989000ACE475F0011211C8
:043D5C00C480D42229
:1037F9009000A9EAF0A3EBF090003A7455F0A37495
:10380900AAF0A3EDF0A3EFF09000A9E0FCA3E0FD7E
:10381900EC90003EF0EDA3F09000AAE02407F090B0
:1038290000A9E03400F07B017A00793AA3E024FF93
:10383900FD9000A9E034FFFC123E9FAE079000A95D
:10384900E0FCA3E0FD2439F58274003CF583EFF038
:093859007B017A00793A023D0C72
:10457D00E4FF900000E0700DFEFD12445B90000022
:10458D007401F080077E007D0112445BEFFB7A0021
:07459D007D03E4FF0237F982
:10260700E4900092F078937C007D017BFF7A41791A
:102617006FFE7F0A1210BD7BFF7A41793E1234D5D7
:102627009000A2EEF0A3EFF07A41793E12378D9039
:102637000092EFF07BFF7A4179451234D59000A2E2
:10264700EEF0A3EFF07A41794512378D900092EFC3
:10265700F07BFF7A4179561234D59000A2EEF0A3B1
:10266700EFF0900092E0FF7E007BFF7A41795612EF
:102677003796900092EFF07BFF7A41795E1234D55E
:102687009000A2EEF0A3EFF0900092E0FF7E007BB7
:10269700FF7A41795E123796900092EFF07BFF7ACE
:1026A7004179641234D59000A2EEF0A3EFF09000C8
:1026B70092E0FF7E007BFF7A4179641237969000A3
:1026C70092EFF07BFF7A41796B1234D59000A2EE3E
:1026D700F0A3EFF0900092E0FF7E007BFF7A417954
:1026E7006B123796900092EFF07BFF7A41796D126B
:1026F70034D59000A2EEF0A3EFF0900092E0FF7EB9
:10270700007BFF7A41796D123796900092EFF0FBCC
:092717007A007D037F010237F90D
:0A486800E4FBFA7D037F020237F93A
:10421000900099EFF012489BE4FEEEC39F501D758D
:10422000F002EEA424BCF582E5F03400F583E0FD55
:0F423000900099E0FCED6C60030E80DEAF06227B
:1033C400900092EBF0A3EAF0A3E9F01210E390006E
:1033D40095F0FD9000011210FC900096F090000210
:1033E4001210FC900097F0A3E4F09000031210FC7C
:1033F400FF900098E02FF0900097E03400F0AF05C4
:1034040012421075F002EFA424BDF582E5F03400F9
:10341400F583E0FF900096E06F60037F0022900048
:1034240095E0FF900092E0FBA3E0FAA3E02404F906
:10343400E43AFA900097E0FDA3E090009DCDF0A35C
:06344400EDF0121F13223F
:10237500900089EEF0A3EFF0900089E0FEA3E02441
:1023850006F58274003EF583E0FF24D47003022431
:10239500B9242CB4090040030224CE9023A7F828C1
:1023A50028730223C20223C50223C80223CB0223BA
:1023B500EA0223EF0223F60224CE0224B602457D6B
:1023C500022607024868900089E0FEA3E02409F58B
:1023D5008274003EF583E0900077F0E4FBFA7D031C
:1023E5007F030237F990002280039000017401F009
:1023F50022900089E0FCA3E0FD2407F58274003CEF
:10240500F583E0FE74082DF58274003CF583E0FD4C
:10241500EDFF900090EEF0A3EFF0E490008EF0A3B6
:10242500F0900090E0FEA3E0FFC390008FE09F9046
:10243500008EE09E40030224CEE0FEA3E0FF900064
:1024450089E0FCA3E0FD2FFBEC3EFA740B2BF58233
:1024550074003AF583E090008BF0A3E4F0740C2B44
:10246500F58274003AF583E0FF90008CE02FF09040
:10247500008BE03400F074092DF974003CFA7B01FF
:1024850090008EE0FEA3E029F9EA3EFA1233C490EB
:10249500008DEFF090008CE02404FF90008BE03479
:1024A50000FE90008FE02FF090008EE03EF00224B9
:1024B500260248A1900089E0FEA3E02409F5827474
:0A24C500003EF583E0FF1248842278
:10417900900074E0FBA3E0FAA3E0F9C003C002C019
:1041890001900071E0FBA3E0FAA3E0F9D082D083AB
:10419900D0E06B7008E965827003EA658360037F8C
:0541A90001227F00224D
:10386200900071E0FBA3E0FAA3E0F9C003C002C03C
:1038720001A3E0FBA3E0FAA3E0F9D082D083D0E079
:103882006B7008E965827003EA65836035900074A5
:10389200A3E0FAA3E0C390003A9582EA9583400E32
:1038A2009000747401F0A37400F0A37423F09000EC
:1038B20074E0FBA3E475F0011211DAA9F0FA121018
:0338C200E3FF22FF
:103D60004453333233315F657272310D0A0044536C
:103D7000333233315F657272320D0A00445333328D
:103D800033315F657272330D0A004453333233317D
:103D90005F657272340D0A004453333233315F650C
:103DA0007272350D0A004453333233315F657272DB
:043DB000360D0A00C2
:03489E000236AE31
:0447A700E0541FFFBC
:0F47AB00EFC4540F75F00AA4FEEF540F2EFF2237
:1047BA00EF75F00A84C454F0FEEF75F00A84E5F050
:0347CA004EFF227D
:1036AE007B017A0079859000917407F0E4FD7FD05C
:1036BE00123A494052900085E0FF1247AB9000E865
:1036CE00EFF0900086E0FF1247AB9000E9EFF0902C
:1036DE000087E0540F9000EAF0900088E09000EB35
:1036EE00F0900089E0FF1247AB9000ECEFF09000F5
:1036FE008A1247A79000EDEFF090008BE0FF124783
:10370E00AB9000EEEFF0227BFF7A3D796012148AC7
:01371E002288
:10354A007B017A0179439000917407F0FD7FD012D4
:10355A003A494062900143E0547FFF1247AB900022
:10356A00F0EFF0900144E0547FFF1247AB9000F176
:10357A00EFF09001451247A79000F2EFF090014654
:10358A00E0543FFF1247AB9000F3EFF0900147E0A1
:10359A00547FFF1247AB9000F4EFF09001481247B6
:1035AA00A79000F5EFF0900149E0543FFF1247ABB6
:1035BA009000F6EFF0227BFF7A3D796E12148A2290
:104612007B017A0179A17D0E7FD01241AE400990D3
:1046220001A1E09000F7F0227BFF7A3D797C121421
:024632008A22DA
:104634007B017A0179A27D0F7FD01241AE400990AF
:1046440001A2E09000F8F0227BFF7A3D798A1214EF
:024654008A22B8
:1039E9007B017A01799A9000917402F07D117FD060
:1039F900123A49404190019AE0FF7E009000F9EEA9
:103A0900F0A3EFF07C007D6412115D9000F9EEF0F7
:103A1900A3EFF090019BE0FF64C06023EFC4131390
:103A2900540375F019A4FFAEF09000FAE02FF0905E
:103A390000F9E03EF0227BFF7A3D799812148A2240
:103BB4009000E8E090014AF09000E9E090014BF0B9
:103BC4009000EAE090014CF09000EBE090014DF0A1
:103BD4009000ECE090014EF09000EDE090014FF089
:103BE4009000EEE0900150F07B017A01794A900157
:103BF4005D7407F0E4FD7FD012400250097BFF7A28
:073C04003D79A612148A228B
:03005B000248A2B6
:0148A20032E3
:10003E0031003200330034003500360037005645AB
:0C004E004D4C363033305F4F4B0D0A0034
:10371F00900085EFF0A3EDF0A3EAF0A3EBF01247D2
:10372F00DD900085E0FF1245A412006350087BFF77
:10373F007A00793E803E900086E0FF1245A4120089
:10374F006350087BFF7A0079408029900087A3E0BF
:10375F00FF1245A412006350087BFF7A0079428064
:10376F0013900087E0FF1245A4120063500B7BFFFC
:0E377F007A00794412148AD3221247FAC32228
:102CFF00900087EFF0A3EDF0A3EBF0A3EAF0A3E9C8
:102D0F00F01247DD900087E0FF1245A412006350D8
:102D1F00087BFF7A007946802C900088E0FF1245EF
:102D2F00A412006350087BFF7A007948801712477E
:102D3F00DD900087E004FF1245A4120063500B7B67
:102D4F00FF7A00794A12148AD32212452F900089F4
:102D5F00E0FBA3E0FAA3E0F9E48FF012121BC2002C
:102D6F00124794900089E0FBA3E0FAA3E0F9C003B7
:102D7F00C002C0011211F0FFAEF0C007C00612452D
:102D8F002FEFFCD0E04CFFD0E0D001D002D003CF2A
:0F2D9F008FF012121BD2001247941247FAC32270
:10448700E4FBFAFD7F2012371F40097BFF7A007992
:104497004C12148A7B077A007D037F2012371F4056
:0B44A700097BFF7A00794C12148A2276
:103EE900E4900085F0A3F07B017A0079857D057F58
:103EF90020122CFF402B900085E0FCA3E0FDE4128A
:103F09000D81E4FBFA79807847120CDFE4FBFA793A
:103F19007A7844120BD6120DBA900085EEF0A3EF11
:0A3F2900F0900085E0FEA3E0FF2207
:1044B2003100320033003400350031202F00322029
:1044C2002F0033202F0034202F003131310D0A000C
:0B44D20053485433305F4F4B0D0A007D
:103C6100900193EFF0A3ECF0A3EDF01247DD90018A
:103C710093E0FF1245A412006350087BFF7A447958
:103C8100B28029900194E0FF1245A412006350080C
:103C91007BFF7A4479B48014900194A3E0FF12452C
:103CA100A4120063500B7BFF7A4479B612148AD3B5
:063CB100221247FAC322B3
:1030F90090018CEFF0A3EBF0A3EAF0A3E9F01247FB
:10310900DD90018CE0FF1245A412006350087BFF9B
:103119007A4479B880171247DD90018CE004FF12D8
:1031290045A4120063500B7BFF7A4479BA12148AC2
:10313900D32212452F90018DE0FBA3E0FAA3E0F919
:10314900E48FF012121BC20012479490018DE0FB2C
:10315900A3E0FAA3E0F9C003C002C0011211F0FF15
:10316900AEF0C007C00612452FEFFCD0E04CFFD0EF
:10317900E0D001D002D003CF8FF012121BD200127F
:0731890047941247FAC3222C
:102E5B00900151EFF0A3ECF0A3EDF0A3EBF0A3EA9C
:102E6B00F0A3E9F01247DD900151E0FF1245A412E7
:102E7B00006350087BFF7A4479BC8042900152E09A
:102E8B00FF1245A412006350087BFF7A4479C0807F
:102E9B002D900152A3E0FF1245A412006350087B52
:102EAB00FF7A4479C480171247DD900151E004FF8B
:102EBB001245A4120063500B7BFF7A4479C812149D
:102ECB008AD322900157E0602F14F012452F900106
:102EDB0054E0FBA3E0FAA3E0F9EF1211299001579C
:102EEB00E06004C2008002D200124794900155E4C6
:0D2EFB0075F0011211C480CB1247FAC322FA
:10319000900134EBF0A3EAF0A3E9F0A3ECF0A3ED87
:1031A000F0A374FFF0E4A3F0A3F0900137E0FEA3D6
:1031B000E0FFC390013BE09FEE6480F890013AE0AD
:1031C0006480985057900139E0FF900134E0FBA3F0
:1031D000E475F0011211DAA9F0FA1210E36F900110
:1031E00039F0E4FDFC900139E030E70925E0FFEF1C
:1031F0006431FF8007900139E025E0FF900139EF4D
:10320000F00DBD00010CED64084C70D990013BE05D
:1032100004F0709690013AE004F0808E900139E05D
:02322000FF228B
:102B8C00900085EEF0A3EFF0A3EBF0A3EAF0A3E93D
:102B9C00F01247DD7F881245A41200635001229089
:102BAC000085E0FF1245A4120063500122900085BD
:102BBC00A3E0FF1245A41200635001221247FA7FD2
:102BCC00017E0012475B1247DD7F891245A412007B
:102BDC00637F037E0012475B900085E0642C7009D4
:102BEC00D2B230B2FDC2B280181247DD7F891245D5
:102BFC00A4120063500B7BFF7A4479CC12148AD355
:102C0C002290008AE0602F14F012452F900087E08C
:102C1C00FBA3E0FAA3E0F9EF12112990008AE0601F
:102C2C0004C2008002D200124794900088E475F030
:0B2C3C00011211C480CB1247FAC32222
:1047CD007BFF7A4479D212148A7FC87E0002475B40
:100ADE00020E26E86480F8E933E83360110460F012
:100AEE00ED33EC337009E8FCE9FDEAFEEBFF22047E
:100AFE0060DED3EB9FEA9EE99DE8C2E78CF0C2F779
:100B0E0095F0400CE8CCF8E9CDF9EACEFAEBCFFB44
:100B1E00120DF185D0F05804700320D5B3E804709F
:100B2E00075002B2D5020E3092D5EC0460F7E4CC39
:100B3E00C0E0C398F8603B94186008400DD0E0FB0D
:100B4E00020E08E4FBFAC9FC8028E830E406E4C98A
:100B5E00FBE4CAFCE830E305E4C9CACBFCE8540761
:100B6E006010F8C3E913F9EA13FAEB13FBEC13FC6C
:100B7E00D8F130F52FC3E49CFCEF9BFFEE9AFEED0F
:100B8E0099FDD0E0FBEF4E4D4C701222DB03020EAE
:100B9E002DEC2CFCEF33FFEE33FEED33FDED30E7A5
:100BAE00EB020E08EF2BFFEE3AFEED39FDD0E0FB27
:100BBE0050130BBB0003020E30ED13FDEE13FEEFD0
:080BCE0013FFEC13FC020E08FA
:100BD600EC4D6011E8497017ED33EC3304600DE419
:100BE600FCFFFEFD22E933E8330470F8020E2612FC
:100BF6000DF158046009E4CC2481500628500902FE
:100C06000E30284003020E2DC0E0EB4A7044B98036
:100C160006D0E0FB020E1CEF4E701CBD8008EBFFF9
:100C2600EAFEE9FD80EBE98DF0A4FEE5F0020CBFDB
:100C3600E9CDF9EAFEEBFFEF89F0A4FCE5F0CE89F9
:100C4600F0A42EFFE435F0CD89F0A42DFEE435F0B6
:100C56008067EF4E7005BD80D780C3EF8BF0A4ACE4
:100C6600F0EE8BF0A42CFCE435F0F8EF8AF0A42C1F
:100C7600E5F038FCE433CB8DF0A42CFCE5F03BF832
:100C8600EE8AF0A42CFCE5F038F8E433CF89F0A422
:100C96002CFCE5F038CF3400CE89F0A42FFFE5F028
:100CA6003EFEE433C98DF0A42EFEE5F039CD8AF080
:100CB600A42FFFE5F03EFEE43DFD33D0E0FB5007F8
:100CC6000BBB000F020E30EC2CFCEF33FFEE33FEB5
:060CD600ED33FD020E08E3
:100CDC00020E30EC5D046005E859047003020E2628
:100CEC00120DF1580460F6EC4860F2EC7004FDFE55
:100CFC00FF22C860DB2481C85009C39860025006EB
:100D0C00020E2D9850CAF582E9294B4A7005AB8228
:100D1C00020E1C75F0007C1A7880C3EF9BEE9AEDE6
:100D2C0099400DC3EF9BFFEE9AFEED99FDE842F062
:100D3C00DC23ACF0D0E0FFD0E0FED0E0FDAB8220B5
:100D4C00E7101BEB60BAEC2CFCEF33FFEE33FEED3F
:100D5C0033FD020E08E803F830E705C0F075F0002B
:100D6C00EF2FFFEE33FEED33FD40B830E7C280AA23
:100D7C0075F020800E75F010800575F0087D007EF2
:100D8C00007F003392D530D503121357EC3340104B
:100D9C00EF33FFEE33FEED33FDEC33FCD5F0ED22FB
:0E0DAC00E5F0247EA2D513CC92E7CDCEFF2237
:100DBA00EDD2E7CD33EC3392D524814006E4FFFE31
:100DCA00FDFC22FCE4CFCECDCC24E0501174FF8090
:100DDA00EDC3CC13CCCD13CDCE13CECF13CF04702D
:070DEA00F030D5DE021357C3
:10141F00E508248FF582E43400F583E00508229077
:10142F00008C30070390008FE475F0011213D9027E
:10143F0010E32000E97F2ED2008018EF540F249084
:10144F00D43440D4FF30040BEF24BFB41A00500340
:10145F002461FFE50960021509050CE50C70020512
:10146F000B30070E90008CE475F0011213D9EF02C8
:10147F00112902488A7403D2078003E4C207F508D2
:10148F0090008C1213F0E4F509F50BF50CE50960EB
:10149F00077F2012146280F5750AFFC201C200C2D5
:1014AF0002C203C205C206C20812142EFF700D300D
:1014BF0007057F00121473AF0CAE0B22B4255FC269
:1014CF00D5C20412142EFF24D0B40A00501A75F09E
:1014DF000A780930D50508B6FF0106C6A426F620FE
:1014EF00D5047002D20380D924CFB41A00EF500470
:1014FF00C2E5D204021765D20180C6D20080C0D2E5
:10150F000280BCD2D580BAD20580B47F201214627B
:10151F002002077401B5090040F112141FFF1214C5
:10152F006202149CD208D206809512141FFB12146B
:10153F001FFA12141FF94A4B700679637A187BFF52
:10154F0020022EE509602A7E008E8275830012101C
:10155F00FC60060EEE650A70F0C2D5EBC0E0EAC083
:10156F00E0E9C0E0EE1217C6D0E0F9D0E0FAD0E023
:10157F00FB1210E3FF60AAEBC0E0EAC0E0E9C0E0B5
:10158F00121462D0E02401F9D0E03400FAD0E0FB6D
:10159F00E50A0460DCD50AD98087D20280A212172F
:1015AF00A860F7E50A700104120E3BA90A600DE569
:1015BF000A600914F50A121850EF60F3EA30E702D7
:1015CF00F404C3995079EAF4250A0430E701E404DE
:1015DF00F50A800D1217A860C1EA050A250A120E36
:1015EF003BEA9000BBF030E701E4250A04D50A047A
:1015FF00200501141217C6E4C0E01218509000BB6A
:10160F00E0601320E70714F012144A802204F0D090
:10161F00E014C0E07F0012144AE50A60071214417B
:10162F00150A800B300503121441D0E002149CD030
:10163F00E00480C41217A8609EE50A04120E3B90C6
:10164F0000BBEAF0E50A200502600104240412172A
:01165F00C6C4
:1016600074FF04C0E012185012144AE50A20050263
:101670006003121441D0E0B50AE87F45121454907B
:1016800000BBE07F2B30E7047F2DF404C0E0121490
:1016900062D0E075F00A84C0F012144BD0E012144E
:1016A0004B02149C791080027908C206C208800897
:1016B000D2D5790A8004790AC2D5E50A047002F508
:1016C0000AE4FAFDFEFF12141FFC7B08200113122E
:1016D000141FFD7B1030000A12141FFE12141FFF8E
:1016E0007B20EC3382D592D55013C3E43000069FA3
:1016F000FFE49EFEE42001039DFDE49CFCE4CBF8A6
:10170000C201EC700CCFCECDCCE824F8F870F38099
:1017100017C3EF33FFEE33FEED33FDEC33FCEB3359
:10172000FB994002FB0FD8E9EB300105F8D0E0C48B
:1017300048B201C0E00AEC4D4E4F78207B0070C2E9
:10174000EAB50A0040BCC0E01217C8D0F0D0E020D3
:101750000104C4C0E0C4B201C0F012144BD0F0D5F3
:10176000F0EB02149C1213F915395316A458150AFC
:101770004C15064216A84F16B04416B049151F4323
:1017800016B65515E34616434515AD471883501553
:101790000E2D15122E15352B151623153320186C0A
:1017A0002A14CE480000152DE50AB4FF03750A0679
:1017B00012141FFC12141FFD12141FFE12141FFF1F
:1017C0009000B4020E78790AA2D5200314300509DE
:1017D000B910020404B9080104A2D5200602500180
:1017E000042002689202B509005034C0E07F203026
:1017F00003197F30A20272067205500F12181FC221
:1018000002C206C205C2087F30800F300503E9C05E
:10181000E0121462300503D0E0F9D0E0B509CC3015
:1018200005177F30B9100C1214627F583004077FFF
:10183000788003B908031214623002057F2D021468
:10184000627F202008F87F2B2006F322920280CFAF
:101850007F00B40700500B24B4F582E43400F58314
:10186000E0FF22286E756C6C2900D20112141F3023
:1018700001F8C201780930D50108F60214CE2D50C6
:1018800043495812141F2403B405004001E4901882
:101890007E93121453743A121453D203750904023E
:0218A00016A48C
:100DF100E9D2E7C933E833F892D5EDD2E7CD33EC48
:070E010033FC5002B2D522C0
:100E0800EC30E7100FBF000C0EBE00080DBD00044B
:100E18000BEB6014A2D5EB13FCED92E7FD2274FFF7
:100E2800FCFDFEFF22E480F8A2D574FF13FC7D8050
:030E3800E480EF64
:100E3B00F920E73624F950037907E4F42402FBE5A3
:100E4B0082158270021583DBF6E024FB501BE960F0
:100E5B0014E4F0E582158270021583E004F0B40A05
:0D0E6B0008E4F0D9EE7401F00A22C2D5228D
:100E7800ED33EC3392D5FA602AB4FF33EDC2E77B49
:100E8800FF60067A0E799DE4227A0E79A620D504B1
:100E98007A0E79A1224E614E002B494E46002D490B
:100EA8004E4600E47A08F0A3DAFC7B00740722C0FF
:100EB80083C082ECC0E0EDC0E0EEC0E0EFC0E0EA45
:100EC80075F010A4CAABF075F04DA42BFBE435F017
:100ED800FCEA2410FAEB34C5FBEC34D9FCEDC2E78C
:100EE800FF75F056A4F42411C5F0F434C58FF0A4AE
:100EF8002AE5F03BE43CF020E714120FADD0E0FF08
:100F0800D0E0FED0E0FDD0E0FC120CDF8014F40449
:100F1800120FADD0E0FFD0E0FED0E0FDD0E0FC1233
:100F28000BD6D082D083E0FAEDD2E7CD33EC332470
:100F380082FBE4C3CF33CFCE33CECD33CD33DBF317
:100F48007B0775F00A846004F0A31B0AE5F0F0A3A0
:100F58008FF0740AA4FFACF08EF0740AA42CFEACD7
:100F6800F050010C8DF0740AA42CFDE435F0F0A3C8
:050F7800DBDE7407221E
:100F7D003F8000004120000042C80000447A00007C
:100F8D00461C400047C35000497424004B189680FE
:100F9D004CBEBC205A0E1BCA6753C21C749DC5AEF5
:100FAD00FB60065407601C2323120FDBEB543860E3
:100FBD0009120FC7120FD6120BD6ECF8EDF9EEFA97
:100FCD00EFCB22EB120FD680F1543803241C900F77
:100FDD007DFE93FC0EEE93FD0EEE930ECE93FF224F
:030000000232AE1B
:0C32AE00787FE4F6D8FD7581220232F52D
:100FED00E709F608DFFA8046E709F208DFFA803EE6
:100FFD0088828C83E709F0A3DFFA8032E309F608D3
:10100D00DFFA8078E309F208DFFA807088828C833A
:10101D00E309F0A3DFFA806489828A83E0A3F608EE
:10102D00DFFA805889828A83E0A3F208DFFA804CC8
:10103D0080D280FA80C680D4806980F2803380109F
:10104D0080A680EA809A80A880DA80E280CA803308
:10105D0089828A83ECFAE493A3C8C582C8CCC58380
:10106D00CCF0A3C8C582C8CCC583CCDFE9DEE78050
:10107D000D89828A83E493A3F608DFF9ECFAA9F0CF
:10108D00EDFB2289828A83ECFAE0A3C8C582C8CC25
:10109D00C583CCF0A3C8C582C8CCC583CCDFEADE3E
:1010AD00E880DB89828A83E493A3F208DFF980CCA0
:1010BD0088F0EF60010E4E60C388F0ED2402B40499
:1010CD000050B9F582EB2402B4040050AF23234540
:0610DD00822390103D7318
:1010E300BB010689828A83E0225002E722BBFE020B
:0910F300E32289828A83E493223E
:1010FC00BB010CE58229F582E5833AF583E02250A9
:10110C0006E92582F8E622BBFE06E92582F8E222F2
:0D111C00E58229F582E5833AF583E493220C
:10112900BB010689828A83F0225002F722BBFE01A5
:02113900F3229F
:10113B00F8BB010DE58229F582E5833AF583E8F0EA
:10114B00225006E92582C8F622BBFE05E92582C896
:02115B00F2227E
:10115D00EF8DF0A4A8F0CF8CF0A428CE8DF0A42EA6
:02116D00FE2260
:10116F00BC000BBE0029EF8DF084FFADF022E4CC64
:10117F00F875F008EF2FFFEE33FEEC33FCEE9DEC2D
:10118F00984005FCEE9DFE0FD5F0E9E4CEFD22ED73
:10119F00F8F5F0EE8420D21CFEADF075F008EF2FBD
:1011AF00FFED33FD4007985006D5F0F222C398FDAE
:0511BF000FD5F0EA224B
:1011C400C5F0F8A3E028F0C5F0F8E58215827002B6
:0611D4001583E038F02253
:1011DA00A3F8E0C5F025F0F0E582158270021583C8
:0611EA00E0C838F0E82225
:1011F000BB010A89828A83E0F5F0A3E022500687CA
:10120000F009E71922BBFE07E3F5F009E31922898B
:0B121000828A83E493F5F074019322BE
:10121B00BB010A89828A83F0E5F0A3F0225006F71E
:0F122B0009A7F01922BBFE06F3E5F009F319221B
:10123A00E88FF0A4CC8BF0A42CFCE98EF0A42CFC53
:10124A008AF0EDA42CFCEA8EF0A4CDA8F08BF0A4D1
:10125A002DCC3825F0FDE98FF0A42CCD35F0FCEB30
:10126A008EF0A4FEA9F0EB8FF0A4CFC5F02ECD39F5
:0F127A00FEE43CFCEAA42DCE35F0FDE43CFC2262
:1012890075F008758200EF2FFFEE33FECD33CDCC1C
:1012990033CCC58233C5829BED9AEC99E58298409F
:1012A9000CF582EE9BFEED9AFDEC99FC0FD5F0D67C
:1012B900E4CEFBE4CDFAE4CCF9A88222B800C1B9A6
:1012C9000059BA002DEC8BF084CFCECDFCE5F0CBE4
:1012D900F97818EF2FFFEE33FEED33FDEC33FCEB1D
:1012E90033FB10D703994004EB99FB0FD8E5E4F9D8
:1012F900FA227818EF2FFFEE33FEED33FDEC33FCC5
:10130900C933C910D7059BE99A4007EC9BFCE99AB8
:10131900F90FD8E0E4C9FAE4CCFB2275F010EF2FFD
:10132900FFEE33FEED33FDCC33CCC833C810D707FD
:101339009BEC9AE899400AED9BFDEC9AFCE899F838
:0E1349000FD5F0DAE4CDFBE4CCFAE4C8F922CB
:0E135700C3E49FFFE49EFEE49DFDE49CFC22A7
:10136500EB9FF5F0EA9E42F0E99D42F0E89C45F0DE
:011375002255
:10137600E8600FECC313FCED13FDEE13FEEF13FF55
:03138600D8F12279
:10138900E8600FEFC333FFEE33FEED33FDEC33FCC2
:03139900D8F12266
:0C139C00ECF0A3EDF0A3EEF0A3EFF022C4
:1013A800A8828583F0D083D0821213BF1213BF1294
:1013B80013BF1213BFE473E493A3C583C5F0C583B9
:1013C800C8C582C8F0A3C583C5F0C583C8C582C88F
:0113D80022F2
:1013D900F8E0FBA3A3E0F925F0F0E582158270029D
:0713E9001583E0FA38F02241
:0913F000EBF0A3EAF0A3E9F022FE
:1013F900D083D082F8E4937012740193700DA3A383
:1014090093F8740193F5828883E473740293686096
:06141900EFA3A3A380DF96
:1032BA000218A2E493A3F8E493A34003F68001F270
:1032CA0008DFF48029E493A3F85407240CC8C33315
:1032DA00C4540F4420C8834004F456800146F6DFE4
:1032EA00E4800B0102040810204080903222E47E20
:1032FA00019360BCA3FF543F30E509541FFEE493D9
:10330A00A360010ECF54C025E060A840B8E493A39F
:10331A00FAE493A3F8E493A3C8C582C8CAC583CACA
:10332A00F0A3C8C582C8CAC583CADFE9DEE780BE82
:0132AD000020
:00000001FF
